:100A0F003738392F3435362A3132332D43303D2B99
:10067D00E4F9FD74EFA805088002C333D8FCF5A09A
:10068D0000E590540FF9E4FC74017E00A804088085
:10069D0005C333CE33CED8F9FFE9FB3395E05EFECB
:1006AD00EF5B4E7075EDFF3395E0FEEF7802C333CF
:1006BD00CE33CED8F92415F58274003EF583ECFBCC
:1006CD003395E0FAE5822BF582E5833AF583E07008
:1006DD0046EDFF3395E0FEEF7802C333CE33CED82F
:1006ED00F92415F58274003EF583E5822BF582E53C
:1006FD00833AF5837401F075A0FF75F004EDA42C19
:10070D00F582E435F0F583E582240FF582E5833437
:10071D000AF583E493FF227F0022EDFF3395E0FE7F
:10072D00EF7802C333CE33CED8F92415F582740099
:10073D003EF583ECFF3395E0FEE5822FF582E583F0
:10074D003EF583E4F00CEC640460030206950DEDB8
:0C075D006404600302068075A0FF7F00AA
:01076900226D
:080A4400908002E020E7F92296
:080A4C00908000EFF0020A4463
:080A5400908001EFF0020A445A
:0A0A3A007F01120A4C7F8F020A4C64
:1009D7007F30120A4C7F0C120A4C7F8F120A4C7F11
:0409E70007020A4CAD
:06094F008B088A09890AE9
:10095500E4FE120A3AAB08AA09A90A8E8275830039
:1009650012035F6011AF060E8F8275830012035F5D
:06097500FF120A5480DFAE
:01097B002259
:1009FE003000256C6400457863657074696F6E20F5
:010A0E0000E7
:1009A3001209BD7B7F7A9679987800C31203DB7EA8
:0A09B3000040047F0080027F022252
:10084800E4F528F527F526F525F52CF52BF52AF5F9
:100858002975243D752230900001F0900000F012B7
:1008680009D77BFF7A0979FE12094F12067D8F247A
:10087800E52460F7120A1F5041900000E0C364802D
:1008880094895079E0FF04F0EF3395E0FE74012F6E
:10089800F58274003EF583E524F0900000E0FF3314
:1008A80095E0FE74012FF58274003EF583E4F07B39
:1008B800017A00790112094F8043E5227B017A0011
:1008C8007901B4300D12076A8F288E278D268C2562
:1008D800800B12076A8F2C8E2B8D2A8C29E524B465
:1008E80043047F438002AF2212052EE4900001F0FA
:1008F800900000F0E524643D600385242285242DC2
:030908000208736F
:10052E00EF24D6607024FD603A24FE70030205CFDE
:10053E0024EC70030206102418600302062BE52437
:10054E00643D6007AF2D120A1F5047E528252CF594
:10055E0028E527352BF527E526352AF526E5253519
:10056E00298024E524643D6007AF2D120A1F502216
:10057E00C3E528952CF528E527952BF527E5269537
:10058E002AF526E5259529F525AF28AE27AD26FCBB
:10059E00806502062BE524643D6007AF2D120A1F0D
:1005AE00501DAF28AE27AD26AC25AB2CAA2BA92A01
:1005BE00A82912038C8F288E278D268C25803880B3
:1005CE005CE524643D6007AF2D120A1F5032AF2C3C
:1005DE00AE2BAD2AAC29EC4D4E4F6022AF28AE2784
:1005EE00AD26AC25AB2CAA2BA92AA82912090B8F54
:1005FE00288E278D268C251209A38F238022801DFD
:10060E00801BE4F52CF52BF52AF529F528F527F5B1
:10061E0026F525752230752430F5238003752301C8
:10062E00E523146049047026750BFF750C0A750DD1
:10063E000085281185271085260F85250E7B017ACA
:10064E0000790B12005F7B017A00790B801DE4F5B7
:10065E002CF52BF52AF529F528F527F526F5257520
:0F066E0022307524307BFF7A0A790412094F225B
:03000000020A2EC3
:0C0A2E00787FE4F6D8FD75812D020848A1
:10035F00BB010CE58229F582E5833AF583E0225053
:10036F0006E92582F8E622BBFE06E92582F8E2229D
:0D037F00E58229F582E5833AF583E49322B7
:10038C00E88FF0A4CC8BF0A42CFCE98EF0A42CFC10
:10039C008AF0EDA42CFCEA8EF0A4CDA8F08BF0A48E
:1003AC002DCC3825F0FDE98FF0A42CCD35F0FCEBED
:1003BC008EF0A4FEA9F0EB8FF0A4CFC5F02ECD39B2
:0F03CC00FEE43CFCEAA42DCE35F0FDE43CFC221F
:10090B00C2D5E830E70FB2D5E4C39BFBE49AFAE417
:10091B0099F9E498F8EC30E717B2D51209411204B3
:10092B0058E4C39BFBE49AFAE499F9E498F8800342
:10093B0012045830D50DE4C39FFFE49EFEE49DFDE9
:04094B00E49CFC220A
:1003DB00EB9FF5F0EA9E42F0E99D42F0EC6480C899
:0603EB0064809845F02239
:10000300E517240BF8E60517227808300702780B6A
:10001300E475F0011204F80203F12000EB7F2ED205
:10002300008018EF540F2490D43440D4FF30040BD5
:10003300EF24BFB41A0050032461FFE518600215D2
:1000430018051BE51B7002051A30070D7808E475C7
:10005300F0011204F8EF02040A02097C7403D207C8
:100063008003E4C207F5178B088A09890AE4F518A7
:10007300F51AF51BE51860077F2012003E80F57521
:1000830019FFC201C200C202C203C205C206C208EE
:1000930012000CFF700D3007057F0012004FAF1BDD
:1000A300AE1A22B4255FC2D5C20412000CFF24D0BD
:1000B300B40A00501A75F00A781830D50508B6FF4F
:1000C3000106C6A426F620D5047002D20380D924E3
:1000D300CFB41A00EF5004C2E5D20402024FD2019A
:1000E30080C6D20080C0D20280BCD2D580BAD205ED
:1000F30080B47F2012003E2002077401B51800402F
:10010300F1120003FF12003E020077D208D20680EC
:1001130095120003FB120003FA120003F94A4B7015
:100123000679207A037BFF20022EE518602A7E00E1
:100133008E8275830012035F60060EEE651970F000
:10014300C2D5EBC0E0EAC0E0E9C0E0EE120296D00F
:10015300E0F9D0E0FAD0E0FB1203F1FF60AAEBC0B4
:10016300E0EAC0E0E9C0E012003ED0E02401F9D0AB
:10017300E03400FAD0E0FBE5190460DCD519D9803E
:10018300877BFF7A027992D202809C791080027970
:1001930008C206C2088008D2D5790A8004790AC247
:1001A300D5E519047002F519E4FAFDFEFF12000308
:1001B300FC7B08200113120003FD7B1030000A12A0
:1001C3000003FE120003FF7B20EC3382D592D5504F
:1001D30013C3E43000069FFFE49EFEE42001039D69
:1001E300FDE49CFCE4CBF8C201EC700CCFCECDCC8B
:1001F300E824F8F870F38017C3EF33FFEE33FEED16
:1002030033FDEC33FCEB33FB994002FB0FD8E9EBF6
:10021300300105F8D0E0C448B201C0E00AEC4D4E0D
:100223004F78207B0070C2EAB5190040BCC0E012D1
:100233000298D0F0D0E0200104C4C0E0C4B201C0F1
:10024300F0120027D0F0D5F0EB0200771205080179
:100253001453018E5800E54C00E14201924F019A7C
:0F02630044019A4900FA4301A0550184460184E1
:100272004501844703405000E92D00ED2E01102B6B
:1002820000F123010E2003292A00A94800000108D9
:100292003F3F3F00790AA2D5200314300509B91067
:1002A200020404B9080104A2D52006025001042068
:1002B20002689202B518005034C0E07F2030031962
:1002C2007F30A20272067205500F1202EFC202C202
:1002D20006C205C2087F30800F300503E9C0E01274
:1002E200003E300503D0E0F9D0E0B518CC30051758
:1002F2007F30B9100C12003E7F583004077F78809F
:1003020003B9080312003E3002057F2D02003E7F32
:10031200202008F87F2B2006F322920280CF286E3D
:10032200756C6C2900D2011200033001F8C2017809
:100332001830D50108F60200A92D50434958120081
:10034200032403B405004001E490033B9312002F01
:0D035200743A12002FD20375180402018EB8
:0F0A1F00EFC394304007EF943A50028001C32296
:1009BD008F0B8E0A8D098C08EC334002800BAF0B28
:0A09CD00AE0AAD09AC081204EA22DC
:10076A008B088A09890AAB08AA09A90A1203F1FFA8
:10077A001209EB500D7401250AF50AE43509F50949
:10078A0080E4D200AB08AA09A90A1203F1FF642B7C
:10079A006004EFB42D1BAB08050AE50AAA0970022A
:1007AA00050914F91203F1642D6003D38001C39281
:1007BA0000E4F50EF50DF50CF50BAB08AA09A90A2C
:1007CA001203F1FF120A1F505CE47F0AFEFDFCAB24
:1007DA000EAA0DA90CA80B12038CC8ECC8EDC0E038
:1007EA00EEC0E0EFC0E0AB08AA09A90A1203F1FFC4
:1007FA003395E0FEEF24D0FFEE34FFFEE4FCFDD09B
:10080A00E0FBD0E0FAD0E0F9EB2FF50EEA3EF50D69
:10081A00ED39F50CEC38F50B7401250AF50AE435C7
:10082A0009F509809530000AAF0EAE0DAD0CAC0B80
:0E083A00800BAF0EAE0DAD0CAC0B1204EA221B
:1003F100BB010689828A83E0225002E722BBFE020A
:09040100E32289828A83E493223C
:10040A00BB010689828A83F0225002F722BBFE01D1
:02041A00F322CB
:10041C0075F008758200EF2FFFEE33FECD33CDCC97
:10042C0033CCC58233C5829BED9AEC99E58298401A
:10043C000CF582EE9BFEED9AFDEC99FC0FD5F0D6F7
:10044C00E4CEFBE4CDFAE4CCF9A88222B800C1B921
:10045C000059BA002DEC8BF084CFCECDFCE5F0CB5F
:10046C00F97818EF2FFFEE33FEED33FDEC33FCEB98
:10047C0033FB10D703994004EB99FB0FD8E5E4F953
:10048C00FA227818EF2FFFEE33FEED33FDEC33FC40
:10049C00C933C910D7059BE99A4007EC9BFCE99A34
:1004AC00F90FD8E0E4C9FAE4CCFB2275F010EF2F79
:1004BC00FFEE33FEED33FDCC33CCC833C810D70779
:1004CC009BEC9AE899400AED9BFDEC9AFCE899F8B4
:0E04DC000FD5F0DAE4CDFBE4CCFAE4C8F92247
:0E04EA00C3E49FFFE49EFEE49DFDE49CFC2223
:1004F800FAE6FB0808E6F925F0F618E6CA3AF62205
:10050800D083D082F8E4937012740193700DA3A382
:1005180093F8740193F5828883E473740293686096
:06052800EFA3A3A380DF96
:10097C00EFB40A07740D120987740A309811A899FC
:10098C00B8130CC2983098FDA899C298B811F630DB
:07099C0099FDC299F59922B3
:1009EB00EFC394094005EF940E4003BF2003D3805F
:0309FB0001C32213
:00000001FF
